:100000000C9462000C9481000C9481000C9481008B
:100010000C9481000C9481000C9481000C9481005C
:100020000C9481000C9481000C9481000C9481004C
:100030000C9481000C9481000C9481000C9481003C
:100040000C9481000C9481000C9481000C9481002C
:100050000C9481000C9481000C9481000C9481001C
:100060000C9481000C9481000C9481000C9481000C
:100070000C9481000C9481000C9481000C948100FC
:100080000C9481000C9481000C948100C600CD007A
:10009000E400FB0015012C0146015D0177018E0192
:1000A000A801BF01D901F00109025702BE025A029C
:1000B000BE026B02BE027C02BE028C02BE029C0229
:1000C000BE02AC0211241FBECFEFD0E4DEBFCDBF15
:1000D00011E0A0E0B1E0EEEFF5E000E00BBF02C000
:1000E00007900D92AE30B107D9F721E0AEE0B1E054
:1000F00001C01D92A331B207E1F70E94C8020C941F
:10010000FD020C940000CF93DF9300D01F92CDB777
:10011000DEB789837B836A8389818A3031F48A815F
:100120009B81BC018DE00E94830080EC90E0FC018B
:100130008081882F90E080729927892BB1F386EC1B
:1001400090E02981FC01208380E090E00F900F90E7
:100150000F90DF91CF910895CF93DF93CDB7DEB7A6
:1001600080910F0190911001CC01A0E0B0E040E03F
:1001700050E02EE030E0841B950B2817390708F477
:100180005EC18A5B9F4FFC010C94F40281E090E019
:100190009093100180930F0174C180911201882304
:1001A00039F082E090E09093100180930F014EC1EE
:1001B00080911201882309F049C181E090E0909379
:1001C000100180930F0142C180911201882339F000
:1001D00082E090E09093100180930F0139C18091EB
:1001E0001201882309F034C183E090E0909310015C
:1001F00080930F012DC180911201882351F084E07A
:1002000090E09093100180930F0181E080931101A1
:1002100021C180911201882309F01CC183E090E084
:100220009093100180930F0115C1809112018823D2
:1002300039F084E090E09093100180930F010CC19D
:1002400080911201882309F007C185E090E0909326
:10025000100180930F0100C180911201882351F099
:1002600086E090E09093100180930F0183E08093EB
:100270001101F4C080911201882309F0EFC085E0DC
:1002800090E09093100180930F01E8C080911201DB
:10029000882339F086E090E09093100180930F015D
:1002A000DFC080911201882309F0DAC087E090E076
:1002B0009093100180930F01D3C080911201882385
:1002C00051F088E090E09093100180930F0187E057
:1002D00080931101C7C080911201882309F0C2C028
:1002E00087E090E09093100180930F01BBC0809154
:1002F0001201882339F088E090E0909310018093F8
:100300000F01B2C080911201882309F0ADC089E0CD
:1003100090E09093100180930F01A6C0809112018C
:10032000882351F08AE090E09093100180930F01B0
:100330008FE0809311019AC080911201882309F007
:1003400095C089E090E09093100180930F018EC0DA
:1003500080911201882339F08AE090E09093100197
:1003600080930F0185C080911201882309F080C01D
:100370008BE090E09093100180930F0179C0809101
:100380001201882351F08CE090E09093100180934B
:100390000F018FE1809311016DC0809112018823BC
:1003A00009F068C08BE090E09093100180930F01FA
:1003B00061C080911201882339F08CE090E0909325
:1003C000100180930F0158C080911201882309F019
:1003D00053C08DE090E09093100180930F014CC0CA
:1003E00080911201882351F08EE090E090931001EB
:1003F00080930F018FE38093110140C0809112011F
:100400008823E1F58DE090E09093100180930F0137
:1004100035C080911201882339F08EE090E09093EE
:10042000100180930F012CC080911201882341F5A7
:1004300081E090E09093100180930F0121C081E052
:1004400090E09093100180930F011BC0000019C031
:10045000000017C0000015C0000013C0000011C04C
:1004600000000FC000000DC000000BC0000009C05C
:10047000000007C0000005C0000003C0000001C06C
:10048000000080910F0190911001CC01A0E0B0E03C
:1004900041E050E02CE030E0841B950B2817390731
:1004A00008F46CC08B5A9F4FFC010C94F40210921C
:1004B000110164C080910E01882321F081E08093B6
:1004C000110153C080910E01882309F04EC080E2D3
:1004D000809311014AC080910E01882321F083E0AE
:1004E0008093110144C080910E01882309F03FC020
:1004F00080E3809311013BC080910E01882321F09D
:1005000087E08093110135C080910E01882389F521
:1005100088E3809311012DC080910E01882321F082
:100520008FE08093110127C080910E01882319F577
:100530008CE3809311011FC080910E01882321F06C
:100540008FE18093110119C080910E018823A9F4D5
:100550008DE38093110111C08FE38093110180918D
:100560000E01809580930E0109C0000007C00000B5
:1005700005C0000003C0000001C0000085E290E05B
:1005800020911101FC0120830000DF91CF9108959B
:10059000CF93DF93CDB7DEB781E290E0FC0110820C
:1005A00082E290E02FEFFC01208384E290E02FEFC5
:1005B000FC01208385E290E0FC0110821092110181
:1005C00081E080930E0181E090E090931001809390
:1005D0000F0180E290E0FC01808180958370809320
:1005E00012010E94AC00F5CFEE0FFF1F0024001C8B
:0E05F0000BBE0790F691E02D0994F894FFCF12
:0E05FE0000000002000000008300000000006A
:00000001FF
