:100000000C944D000C946C000C946C000C946C00DF
:100010000C946C000C946C000C946C000C946C00B0
:100020000C946C000C946C000C946C000C946C00A0
:100030000C946C000C946C000C946C000C946C0090
:100040000C946C000C946C000C946C000C946C0080
:100050000C946C000C946C000C946C000C946C0070
:100060000C946C000C946C000C946C000C946C0060
:100070000C946C000C946C000C946C000C946C0050
:100080000C946C000C946C000C946C00B100B800E3
:10009000E50012013F016C01990111241FBECFEF51
:1000A000D0E4DEBFCDBF11E0A0E0B1E0ECE7F4E0CA
:1000B00000E00BBF02C007900D92AE30B107D9F738
:1000C00021E0AEE0B1E001C01D92A231B207E1F73C
:1000D0000E9409020C943C020C940000CF93DF9321
:1000E00000D01F92CDB7DEB789837B836A83898175
:1000F0008A3031F48A819B81BC018DE00E946E00C0
:1001000080EC90E0FC018081882F90E0807299273C
:10011000892BB1F386EC90E02981FC01208380E0FB
:1001200090E00F900F900F90DF91CF910895CF93B3
:10013000DF93CDB7DEB780910E0190910F01CC0116
:10014000A0E0B0E040E050E026E030E0841B950BFA
:100150002817390708F419C18A5B9F4FFC010C94DA
:10016000330281E090E090930F0180930E0121C152
:1001700080911101882339F481E090E090930F0180
:1001800080930E010BC180911101813039F482E01E
:1001900090E090930F0180930E0100C180911101B6
:1001A000823039F484E090E090930F0180930E0147
:1001B000F5C080911101833009F0F0C086E090E035
:1001C00090930F0180930E01E9C08091110181305D
:1001D00039F483E090E090930F0180930E01E0C02A
:1001E00080911101823039F484E090E090930F0106
:1001F00080930E01D5C080911101833039F486E0DF
:1002000090E090930F0180930E01CAC0809111017C
:10021000882309F0C5C081E090E090930F0180939E
:100220000E01BEC080911101882339F481E090E075
:1002300090930F0180930E01B5C080911101813020
:1002400039F483E090E090930F0180930E01AAC0EF
:1002500080911101823039F484E090E090930F0195
:1002600080930E019FC080911101833009F09AC0E4
:1002700086E090E090930F0180930E0193C08091EF
:100280001101813039F482E090E090930F01809366
:100290000E018AC080911101823039F485E090E02E
:1002A00090930F0180930E017FC0809111018330E4
:1002B00039F486E090E090930F0180930E0174C0B2
:1002C00080911101882309F06FC081E090E0909344
:1002D0000F0180930E0168C080911101882339F4C9
:1002E00081E090E090930F0180930E015FC08091B8
:1002F0001101813039F482E090E090930F018093F6
:100300000E0154C080911101823039F485E090E0F3
:1003100090930F0180930E0149C0809111018330A9
:1003200009F044C086E090E090930F0180930E01A5
:100330003DC080911101833039F486E090E09093C4
:100340000F0180930E0134C080911101813039F486
:1003500082E090E090930F0180930E0129C080917C
:100360001101823039F484E090E090930F01809382
:100370000E011EC0809111018823D1F481E090E02C
:1003800090930F0180930E0113C080910E01909104
:100390000F0190930F0180930E010BC0000009C064
:1003A000000007C0000005C0000003C0000001C03D
:1003B000000080910E0190910F018430910579F039
:1003C00086309105B1F00297D1F480911001893007
:1003D00098F4809110018F5F809310010DC080917F
:1003E0001001882359F080911001815080931001F1
:1003F00005C01092100103C0000001C0000088E297
:1004000090E020911001FC0120830000DF91CF914A
:100410000895CF93DF93CDB7DEB781E290E0FC0182
:10042000108282E290E02FEFFC01208387E290E0CF
:100430002FEFFC01208388E290E0FC01108287E02E
:100440008093100181E090E090930F0180930E0162
:1004500080E290E0FC01808180958370809311019F
:100460000E949700F5CFEE0FFF1F0024001C0BBE6B
:0C0470000790F691E02D0994F894FFCF5E
:0E047C0000000002000000006E000000000002
:00000001FF
